:060000000A128A110C280F
:10000800FE00030EF1000A08F2000A128A11C42841
:100018000A128A110F28F70183010A128A1114287B
:100028000A128A1177200A128A11831203139F1861
:100038001E281F2820289F1405170D30F500FB30B7
:10004800F400F40B2528F50B25282A28831203131E
:1000580085130D30F500FB30F400F40B3128F50B57
:100068003128362877088312031393008316031365
:10007800141C3F2840283A288312031385170D3093
:10008800F500FB30F400F40B4728F50B47284C2803
:100098008312031305130D30F500FB30F400F40B45
:1000A8005328F50B53285828FF3083120313930065
:1000B80083160313141C612862285C288312031317
:1000C800130888000230F6004530F500A930F40026
:1000D800F40B6C28F50B6C28F60B6C287328192880
:1000E8000A128A110C280230831603178800890126
:1000F800831603130F088F3940388F000F1402300E
:100108008500831203138501831603138801831264
:100118000313880110308316031387008312031317
:100128008701F030940514129416831603131417DC
:10013800941777088312031393001F083F39403838
:100148009F00831603131F129F12C33083120313D9
:100158009F051F08C33904389F00831603139F1394
:10016800831203131F140330F300F30BB92883120F
:1001780003130C13831603130C170B178B170800A4
:10018800831203130C1FC928CA28D8281F0CF00093
:10019800700C0F39013A031DD228D328D7281E081E
:1001A800F0007008F7000C1372088A00710E8300C3
:0601B800FE0E7E0E0900A0
:08400000FF3FFF3FFF3FFF3FC0
:04400E00D420FF3F7C
:00000001FF
